:100000000C94C0110C94E8110C94E8110C94E811B4
:100010000C94E8110C94E8110C94E8110C94E8117C
:100020000C94E8110C94E8110C94E8110C94E8116C
:100030000C94E8110C94E8110C94E8110C94E8115C
:100040000C94F01B0C94E8110C94601C0C943A1C5A
:100050000C94E8110C94E8110C94E8110C94E8113C
:100060000C94E8110C94E811320032003200320096
:10007000030001010180010001062B0003000103C0
:1000800001C00100010F2B000300010701E0010086
:10009000013F01802A000300011F01F80100017FD8
:1000A00001C02A000300013F01FC010001FF01F033
:1000B0002A000300017F01FE010101FF01F82A006F
:1000C000030001FE017F010301F901FC2A00010088
:1000D0000100010301FC013F018F01F001FF2A0033
:1000E00001000100010701F8011F011F01E0017F6C
:1000F0000180290001000100010F01E00106013F1C
:100100000180013F01C0290001000100011F01C061
:100110000100017F0100010F01E029000100010041
:10012000017F0180010101FE0100010701F82900A2
:100130000100010001FF0180010301FE0100010730
:1001400001FC29000100010101FF0180010701FEFE
:100150000100010701FE29000100010301FF0180E8
:10016000010F01FE0100010701FF29000100010745
:1001700001FF0180011F01FE0100010701FF018055
:1001800028000100010701FF0180011F01FE01009D
:10019000010701FF018028000100010701FF018024
:1001A000011F01FE0100010701FF0180280001007D
:1001B000010701FF0180011F01FE0100010701FF8E
:1001C000018028000100010701FF0180011F01FEDD
:1001D0000100010701FF018028000100010701FF64
:1001E0000180011F01FE0100010701FF01802800BD
:1001F0000400011F01FE2C00010F03FF011F01FE7F
:100200002C00010F03FF019F01FE017F03FF01C0CE
:100210002700010F03FF019F01FE017F03FF01C0C3
:100220002700010F03FF019F01FE017F03FF01C0B3
:100230002700010F03FF019F01FE017F03FF01C0A3
:100240002700010F03FF019F01FE2C00010F03FF98
:10025000019F01FE2C00010F03FF019F01FE017FA2
:1002600003FF01C02700010F03FF019F01FE017F73
:1002700003FF01C02700010F03FF019F01FE017F63
:1002800003FF01C02700010F03FF019F01FE017F53
:1002900003FF01C02700010F03FF019F01FE017F43
:1002A00003FF01C02700010F03FF019F01FE2C0087
:1002B000010F03FF019F01FE2C00010F03FF019FAF
:1002C00001FE017F03FF01C00500013F01FF01FEA8
:1002D000010101FF01C00100017F01FF01000103D5
:1002E00001FF01FC010701FF010F01FC1100010FDB
:1002F00003FF019F01FE017F03FF01C00500013FD5
:1003000001FF01FF010101FF01C00100017E01FFAA
:100310000100010701FF01FC010701FF011F01FCB2
:100320001100010F03FF019F01FE017F03FF01C0C8
:100330000500013F01FF01FF018301FF01C0010032
:1003400001FF01FF0180010F01FF01FF010701FF14
:10035000011F01FC1100010F03FF019F01FE017F3E
:1003600003FF01C00500013F01FF01FF01C301FFC1
:1003700001C0010001CF01FF0180011F01FF01FF4A
:10038000018301FF011F01FC1100010F03FF019F09
:1003900001FE017F03FF01C00500013F01FF01FFD6
:1003A00001C101FF01C0010001FF01FF0180013F08
:1003B00001FF01FF01C701FF011F01FC1100010F37
:1003C00003FF019F01FE0A00013F01FF01FF01E160
:1003D00001FF01C0010001FF01FF0180013F01FF9A
:1003E00001FF01C701FF011F01F81100010F03FF09
:1003F000019F01FE017F03FF01C00500013F01FFD6
:1004000001FF01E101FF01C0010001FF01FF0180C7
:10041000017F01FF01FF01C701FF011F01F811006A
:10042000010F03FF019F01FE017F03FF01C00500D3
:10043000013F01FF01FF01E101FF01C0010001FFD8
:1004400001FF0180017F01FF01FF01C701FF013FA3
:1004500001F81100010F03FF019F01FE017F03FF5F
:1004600001C00500013F01FF01FF01E101FF01C0E3
:10047000010001FF01FF0180017F01FF01FF01E792
:1004800001FF013F01F81100010F03FF019F01FE71
:10049000017F03FF01C00500013F01FF01FF01E1F2
:1004A00001FF01C0010001FF01FF0180017F01FF89
:1004B00001FF01E701FF013F01F81100010F03FFF8
:1004C000019F01FE017F03FF01C00500013F01FB09
:1004D00001FF01E101FF01C0010001FF01FF0180F7
:1004E000017F01FF01FF01E701FF013F01F0110062
:1004F000010F03FF019F01FE0A00013F01F801FF08
:1005000001F101FF01C0010001FF01FF0180017F36
:1005100001F901FF01E701FF013F01F01100010FA7
:1005200003FF019F01FE0A00013F01F801FF01E105
:1005300001FF01C0010001FF01FF0180017F01F106
:1005400001FF01E701FF013F01F01100010F03FF6F
:10055000019F01FE017F03FF01C00500013F01F87B
:1005600001FF01E101FF01C0010001FF01FF01C026
:10057000017F01F101FF01E101FF013F01F01100E5
:10058000010F03FF019F01FE017F03FF01C0050072
:10059000013F01F801FF01E301FF01C0010001FF7C
:1005A00001FF01C0017F01F101FF01E301FF017FB4
:1005B00001F01100010F03FF019F01FE017F03FF06
:1005C00001C00500013F01F801FF01E301FF01C087
:1005D000010001FF01FF01C0017F01F101FF01E303
:1005E00001FF017F01F01100010F03FF019F01FED8
:1005F000017F03FF01C00500013F01F801FF01E396
:1006000001FF01C0010101FF01FF01C0017F01F1F4
:1006100001FF01E701FF017F01E011000400011F5C
:1006200001FE017F03FF01C00500013F01F801FF4A
:1006300001E301FF01C0010101FF01FF01C0017FD2
:1006400001F101FF01E701FF017F01E0110004005A
:10065000011F01FE0A00013F01F801FF01F301FF44
:1006600001C0010101FF01FF01C0017F01F101FF94
:1006700001E701FF017F01E011000100010701FF17
:100680000180011F01FE0100010701FF018006003A
:10069000013F01F801FF01F301FF01C0010101FF6A
:1006A00001FF01C0017F01F101FF01E501FF017FB1
:1006B00001E011000100010701FF0180011F01FE9F
:1006C0000100010701FF01800600013F01F801FF61
:1006D00001F301FF01C0010101FF01FF01C0017F22
:1006E00001F101FF01E501FF017F01E011000100BF
:1006F000010701FF0180011F01FE0100010701FF49
:1007000001800600013F01F801FF01E301FF01C084
:10071000010101FF01FF01C0017F01F101FF01E7BC
:1007200001EF017F01E011000100010701FF0180DD
:10073000011F01FE0100010701FF01800600013FCA
:1007400001F801FF01F301FF01C0010101FF01FFF9
:1007500001C0017F01F101FF01E701CF017F01C06D
:1007600011000100010701FF0180011F01FE0100CE
:10077000010701FF01800600013F01F8017F01F33D
:1007800001FF01C0010101FF01FF01C0017F01F173
:1007900001FF01E701CF01FF01C0110001000107C6
:1007A00001FF0180011F01FE0100010701FF01801F
:1007B0000600013F01F801FF01F301FF01C0010143
:1007C00001FF017F01C0017F01F101FF01C701FFAE
:1007D00001FF01C011000100010301FF0180010FB1
:1007E00001FE0100010701FF0700013F01F801FFC1
:1007F00001F301FF01C0010101FF017F01E0017F61
:1008000001F101FF01C701FF01FF01C0110001005B
:10081000010101FF0180010701FE0100010701FE46
:100820000700013F01F801FF01E301FF01C00101E1
:1008300001FF017F01E0017F01F001FF01C701FF1E
:1008400001FF01C011000100010001FF018001034F
:1008500001FE0100010701FC0700013F01F801FF53
:1008600001E301FF01C0010101FF017F01E0017F00
:1008700001F00100010701FF01FF018011000100EB
:100880000100017F0180010101FE0100010701F06B
:100890000700013F01F901FF01E301FF01C0010170
:1008A00001FF017F01E0017F01F001000107019FCD
:1008B00001FF0180110001000100011F01C00100C2
:1008C000017F0100011F01E00700013F01FF01FF5F
:1008D00001E301FF01C0010301FF017F01E0017F8E
:1008E00001F00100010701FF01FF0180110001007B
:1008F0000100010F01F0010E013F0180013F01C025
:100900000700013F01FF01FF01E301FF01C00103F7
:1009100001FF017F01E0017F01F00100010701BF3C
:1009200001FF0180110001000100010701F8011F12
:10093000011F01E0017F01800700013F01FF01FF6E
:1009400001E301FF01C0010301FF017F01E0017F1D
:1009500001F001000107019F01FF0180110001006A
:100960000100010301FC013F018F01F001FE0800BD
:10097000013D01FF01BF01C301FF01C0010301FFF0
:10098000017F01E0017F01F001000107011F01FF6C
:100990001200030001FE017F010301F901FC0800C0
:1009A000013F01FF01FF01C301FF01C0010101FF80
:1009B000017F01E0017F01F00100010701BF01FF9C
:1009C000018011000300017F01FE010101FF01F818
:1009D0000800013F01FF01FF010301FF01C0010108
:1009E00001DF017F01E0017F01F00100010701FF4C
:1009F00001FF018011000300013F01FC010001FF24
:100A000001F00800013F01FF01FF018301FF01C068
:100A1000010101FF017F01E0017F01F001000107F9
:100A200001EF01FF018011000300011F01F001002F
:100A3000017F01C00800013F01FF01FF01C301FF69
:100A400001C0010301FF017F01F0017F01F00100FE
:100A5000010701FF01FF018011000300010701E010
:100A60000100011F01800800013F01FF01FF01C3D8
:100A700001FF01C0010301FF017F01F0017F01F0CF
:100A80000100010701FF01FF0180110003000103C4
:100A900001C00100010F0900013F01FF01FF01E357
:100AA00001FF01C0010301FF017F01F0017F01F09F
:100AB0000100010701FF01FF018011000300010196
:100AC0000180010001060900013F01FF01FF01C390
:100AD00001FF01C0010301FF017F01F0017F01F06F
:100AE0000100010701FF01FF01C011001000013FDB
:100AF00001F901FF01C301FF01C0010301FF017FF3
:100B000001F0017F01F00100010701FF01FF01C0B9
:100B100011001000013F01F801FF01E301FF01C0D6
:100B2000010301FE013F01F0017F01F00100010717
:100B300001FF01FF01C011001000013F01F801FF9A
:100B400001E301FF01C0010301FE013F01F0017F4C
:100B500001F00100010701FF01FF01C011001000B9
:100B6000013F01F8017F01E301FF01C0010701FE20
:100B7000013F01F0017F01F101FF01C701F701FF12
:100B800001C011001000013F01F801FF01F301FF56
:100B900001C0010701FE013F01F0017F01F101FFEA
:100BA00001C701FF01FF01C011001000013F01F862
:100BB00001FF01E301FF01C0010701FE013F01F058
:100BC000017F01F101FD01C701FF01FF01E01100FB
:100BD0001000013F01F801FF01E301FF01C001071F
:100BE00001F6013F01F0017F01F101FE01C701FFA4
:100BF00001FF01E011001000013F01F801FF01F3C6
:100C000001FF01C0010701F6013F01F8017F01F179
:100C100001F301C701FF017F01E011001000013F56
:100C200001F801FF01E301FF01C0010601E701FF37
:100C300001F8017F01F101FF01C701FF017F01E020
:100C400011001000013F01F801FF01E301FF01C0A5
:100C5000010701FF01FF01F8015F01F101FF01C779
:100C600001FF017F01E011001000013F01F801FFC9
:100C700001E301FF01C0010701FF01FF01F8017F4E
:100C800001F101FF01C701FF017F01E01100100028
:100C9000013F01F801FF01E301FF01C0010701FF6E
:100CA00001FF01F8017F01F101FF01C701FF017F91
:100CB00001F011001000013F01F801FF01E301FF05
:100CC00001C0010701FF01FF01F8017F01F101DF10
:100CD00001C701FF017F01F011001000013F01F881
:100CE00001FF01E301FF01C0010701F701FF01F866
:100CF000017F01F101FF01C701FF017F01F0110038
:100D00001000013F01F801FF01E301FF01C00107ED
:100D100001FF01FF01F8017F01F101FF01C701FFA0
:100D2000017F01F011001000013F01F801FF01E314
:100D300001FF01C0010F01F701FF01F8017F01F17F
:100D400001F301C701FF017F01F011001000013F15
:100D500001F801FF01E301FF01C0010D01FF01FFE7
:100D600001F8017F01F101EF01C701FF017F01F0EF
:100D700011001000013F01F801FF01E301FF01E054
:100D8000010F01FF01FF01F8017F01F101FF01C720
:100D900001FF013F01F811001000013F01F801FFC0
:100DA00001E301FF01C0010F01FF01FF01FC017F11
:100DB00001F101FF01C701FF013F01F8110010001F
:100DC000013F01F801FF01E301FF01C0010F01FE36
:100DD000013F01FC017F01F101FF01C701FF013F5C
:100DE00001F811001000013F01F801FF01E301FFCC
:100DF00001C0010301FE013F01FC017F01F101FF80
:100E000001C701FF013F01F811001000013F01F887
:100E100001FF01E301FF01C0010B01FE013F01FCE5
:100E200001FF01F101FF01C701FF013F01F81100BE
:100E30001000013F01F801FF01E301FF01C0010FB4
:100E400001FC013F01FC017F01F101FF01C701FF2E
:100E5000013F01F811001000013F01F901FF01E31A
:100E600001FF01FE010F01FC011F01FC017F01FBDD
:100E700001FF01C701FF013F01FC11001000013F0C
:100E800001FF01FF01E301FF01FF010F01FC011F51
:100E900001FC017F01FF01FF01C701FF011F01FCF0
:100EA00011001000013F01FF01FF01E301FF01FFFD
:100EB000010F01FC011F01FC017F01FF01FF01C7C0
:100EC00001FF011F01FC11001000013F01FF01FFA4
:100ED00001E301FF01FF010F01FC011F01FC017F84
:100EE00001FF01FF01C701FF011F01FC11001000FC
:100EF000013F01FF01FF01E301FF01FF010F01FCC1
:100F0000011F01FC017F01FF01FF01C701FF011F5C
:100F100001FC11001000013F01FF01FF01E301FF8F
:100F200001FF010F01FC011F01FC017F01FF01FF17
:100F300001C701FF011F01FC11001000013F01FF6B
:100F400001FF01C301FF01FF010F01FC011F01FCB3
:100F5000017F01FF01FF018701FF011F01FC11005B
:100F60001000013F01FF01FF01C301FF01FF011F4D
:100F700001FC011F01FC013F01FF01FF018701FF8F
:100F8000011F01FC11001000013F01FF01FF01C31F
:100F900001FF01FF011F01FC011F01FC011F01FFF7
:100FA00001FF010701FF011F01FE11001000013FB9
:100FB00001FF01FF010301FF01FF011F01FC011FF0
:100FC00001FE010F01FF01FE010701FF010F01FEFC
:100FD00011001000013F01FF01FE010301FF01FFAD
:100FE000011F01FC011F01FE010701FF01FC0107B8
:100FF00001FF010F01FE11001000010301FF01D0EC
:10100000010101FB01CE01000100010501FC01000D
:10101000010701C0010301FF010F01FE11003200B1
:101020003200320032001700010701FE19001700DC
:10103000011F01FF018018001700017F01FF01C09F
:101040001800170001FF01FF01E01800170001FF61
:1010500001FF01F018001600010101FE010F01F06F
:1010600018001600010301FC010301F81800160026
:10107000010301F8010301F818001600010301F053
:10108000010101F818001600010301F0010101F847
:1010900018001600010701F0010101F81800160000
:1010A000010701F0010101F818001600010701F025
:1010B000010101F818001600010701F0010301F811
:1010C00018001600010301F8010301F818001600CA
:1010D000010301F8010701F018001600010301F8EF
:1010E000010F01F018001600010101FC013F01E0B1
:1010F00018001600010101FE017F01C01800160052
:10110000010101FF01FF01801800170001FF01FF2D
:1011100019001700017F01FC1900170001FF01F001
:101120000100013F0180160017FF0100013F01FF90
:1011300001E017FF16FF01FE0100011F01FF01E0A2
:1011400017FF16FF01FC0108010F01FF01E017FF67
:1011500016FF01F8013C010F01FF01E117FF16FF27
:1011600001F0017E010701FF01C117FF16FF01E039
:1011700001FF010301FF01C117FF16FF01C001FFBD
:10118000018101FF01C117FF16FF01C101FF01C06D
:1011900001FF01C317FF16FF01C301FF01E0017F3B
:1011A000018317FF16FF018301FF01F0013F018357
:1011B00017FF16FF018301FF01F8011F010717FF49
:1011C00016FF018301FF01FC011F010717FF16FF36
:1011D000018301FF01FE010E010F17FF16FF0183BE
:1011E00001FF01FE0106010F17FF16FF018301FF3A
:1011F00001FF0100011F17FF16FF018301FF01FF1F
:101200000180011F17FF16FF018101FF01FF01C0CF
:10121000013F17FF16FF018101FF01FF01E0017F80
:1012200017FF16FF01C001FF01FF01C0013F17FFBB
:1012300016FF01C0017F01FF0180011F17FF16FF8C
:1012400001E0013F01FF0100010F17FF16FF01F050
:10125000010F01FC010E010717FF16FF01F8010045
:101260000100011E010317FF16FF01FC0100010030
:10127000013F010117FF17FF0100010001FF01807D
:1012800017FF17FF01C0010701FF01C0017F16FF13
:1012900032FF32FF32FF32FF32FF32FF32FF32FFC6
:1012A00032FF32FF32FF32FF0FFF01FB010101F875
:1012B000014A013E011901F301C701E001AF01201C
:1012C00001780100016C013F0100010012FF0FFFD6
:1012D00001F9010101F00170013F010101F30183F6
:1012E00001C0018F01A6013801000104011E014067
:1012F000010012FF0FFF01FE01E901F70113013F99
:1013000001FF01F7010301DB01BF0100013801000A
:101310000102011E0118011012FF0FFF01FE01BDA5
:1013200001F0018301FE01A101F2016301FF01AFA0
:101330000100013801000100011E0109013812FFFE
:101340000FFF01FC010101F20102017F010301F81D
:1013500001E301C4012F0100013801000100011F58
:101360000109016012FF0FFF01FE010001F60102F9
:10137000013F01A101F0018301C4018F0100013887
:1013800001100104011E0100010012FF0FFF01FC0A
:10139000010001F60107013F01AD01F0010701C2A3
:1013A00001CF0100013C01000100011E010001000C
:1013B00012FF0FFF01FE017401F1018701BE01EF71
:1013C00001F0011701C0010F0100017F01F80103C5
:1013D000011E0100010012FF10FF01F401F10103E1
:1013E00001BF01F101F0012B01EA013F0100013BC6
:1013F00001F80100011E0118010012FF0FFF01FE9C
:1014000001C301F1011301FE016101F0010301D7E4
:10141000018F010001380100010001FE0104013FBC
:1014200012FF0FFF01FC010F01F0011101FC01434C
:1014300001F0012301C7018F010C013F01E0010709
:1014400001FE0100017F12FF0FFF01FC010401F703
:101450000116013F010301F101D301E2010F011E59
:10146000013F01E8010701FE0100017F12FF0FFFAC
:1014700001FE011C01F301B301FF010B01F301FBAC
:1014800001F0010F0108013F01F8010701FE01040D
:10149000017F12FF0FFF01FE01DD01F6019F01BD7B
:1014A000011F01F101A701C3010F0100013F01F07C
:1014B000011F01FE0108017F12FF0FFF01FE010F56
:1014C00001F7011F01FD01BB01F0017F01CD010FFB
:1014D0000106013F01E0010701FE0108017F12FF43
:1014E0000FFF01FE018601FC010101FE013B01F03D
:1014F000013F01D3010F0102013F01E0010701FE9D
:101500000110017F12FF0FFF01FE010001E1013C0C
:10151000017F01BF01F1010701ED010F0100013F52
:1015200001E0010701FE0100017F12FF0FFF01FE34
:1015300001E201E301BD01FD016301F7010701CCF7
:1015400001EF0100013F01E0010701FE0100017F01
:1015500012FF10FF01E001E1018D01FC011301F414
:10156000010301C701FF0100013F01E0012701FE66
:101570000100017F12FF0FFF01FE010801E1015C84
:1015800001FC010301F0010F01C6016F0100013FE1
:1015900001E0012701FE0100017F12FF0FFF01FEA4
:1015A000010001E9019E01FC010B01F8011F01F19D
:1015B000013F0100013F01E0010701FE0100017F41
:1015C00012FF0FFF01FE010101E0010F01FF016F9A
:1015D00001E0010701F9019F0102017F01E001071C
:1015E00001FE0100017F12FF0FFF01FE01010160FA
:1015F000010701BB01C301E3018701DD019F010078
:10160000013F01E001C701FE0100017F12FF0FFF52
:1016100001FE01000161018701BE01CB01F8010754
:1016200001EF010F0100013F01E101C701FE0100CF
:10163000017F12FF0FFF01FE010001600107013E63
:1016400001FF01F0012701C1010F0100013F01E08D
:10165000010701FE0100017F12FF10FF01800164FC
:10166000012701FC01FB01E001E701DF010F01207F
:10167000013F01E0010701FE0100017F12FF10FFA1
:101680000102016001E501FF01FF01E4019701DDB5
:10169000010F012001FF01E0010701FE0100017FB0
:1016A00012FF10FF0122017601C701BF013F01FEB9
:1016B000015B01D4010F0102017F01F8010701FE66
:1016C0000100017F12FF10FF01820170010101FF83
:1016D000017F01E301F0016701FF010001FF01E06B
:1016E000010701FE0102017F12FF10FF01F00160FE
:1016F0000101017F017701E90180015E01CF010055
:10170000017F01E0010701FE010F010012FF10FF40
:1017100001D401620143015E01BF01E80102013B06
:10172000014F0100017F01E0010701FE01850180F9
:1017300012FF10FF010001780102015F01F701E8CB
:1017400001000100011F0100017F01E8010701FF05
:101750000100010012FF10FF011E0178010001DBF2
:10176000017701E001000100010F0100017F01ECA0
:10177000010701FE0104010012FF10FF011701E241
:10178000010001FB01EF01E001300102010F010046
:10179000017F01E0010701FE019F01E012FF10FF40
:1017A000011501F1018001F801C701E00110018874
:1017B000010F0100017F01E0010701FF0197011CFA
:1017C00012FF10FF010301F30160013801CF01E0B6
:1017D0000102010001CF0130017F01E0010F01FF93
:1017E000013C010012FF10FF016F0144012001F1D3
:1017F00001BF01E801060100012F0170017F01E036
:10180000010F01FE0120012012FF10FF018501D50B
:1018100001A0017101B701F8010301C0010F01002E
:10182000013F01E0010701FE011B017512FF10FFDE
:10183000018D01DD01300171019701E0010701C057
:10184000012F0100017F01F8017701FE013B13FF29
:1018500010FF01E501C301B0010601FF01E001072E
:1018600001C0019F010C017F01FC010701FE016124
:1018700013FF10FF01C001EB0133016001EF01E034
:10188000010701C0019E010701FF01E0010F01FFF7
:1018900001D013FF10FF018001390131014901CF4F
:1018A00001E0010701C0019F011301FF01E00107F1
:1018B00001FE019813FF10FF01800107017C012048
:1018C000019F01E0010701C0011E010201FF01E0CB
:1018D000010F01FE011F017F12FF10FF01A401068D
:1018E000017C0181012F01E0010701E0016E011B74
:1018F000017F01E1018701FE011B13FF10FF01873A
:1019000001C6017001D0010F01E0010701C0016EA5
:10191000010F01FF01E1018701FE011213FF10FF1A
:101920000183010E01700144011F01E0010701C0A4
:10193000010E0103017F01F0010701FE013013FFD9
:1019400010FF01F3018601700102011F01E0010790
:1019500001C0010E014301FF01E0018701FE013CCE
:1019600013FF10FF01F301C101F00130018F01E00D
:10197000010701C001DF011E01FF01E0010701FEB7
:10198000013F13FF10FF01C3017101F00130010F8E
:1019900001E0010701C0019E010E01FF01E1010705
:1019A00001FE019F13FF10FF0190011801F9018151
:1019B000019F01E0010701C1011F01DC017F01EC72
:1019C000010701FE018E13FF10FF01E1013F01F845
:1019D00001C1019F01E0010701C1019F01DB017FFE
:1019E00001E3010701FE019013FF10FF01E001D99F
:1019F00001F80101019F01E2010701C001DF017748
:101A000001FF01E3011F01FE019F13FF10FF01E32E
:101A100001F001F8018101FF01E00107018101FFEF
:101A20000166017F01E0011F01FF01FD13FF10FFAF
:101A300001C301610178018001BF01E0010701805C
:101A4000013F0146017F01EC011F01FF01FC13FF73
:101A500010FF01E301A001780180011F01E00107EF
:101A6000018001FF0118017F01E0010F01FE015E0D
:101A700013FF10FF01E0010C01F801C001DF01E0DC
:101A800001070180017F01FB017F01E0010F01FFE0
:101A9000018E13FF10FF01D8010801F8010001DFDA
:101AA00001E0010701C0011F01FF01FF01E0010F7B
:101AB00001FF01CF13FF10FF01DB018801F8014096
:101AC000011F01E0010701C8011F01F0017F01E0D2
:101AD000010F01FE014F13FF10FF01EB018101FC1B
:101AE0000100015F01E10107018801BE01F8017FEA
:101AF00001E0010F01FE01F713FF10FF01F00141AA
:101B000001FC0138011F01E70107018301FE01FE0D
:101B1000017F01EE010F01FE01F713FF10FF01E04D
:101B2000010101FC0138017F01E001070183017E11
:101B300001FF01FF01E6010F01FE017F017F12FF9E
:101B400010FF01C0010301FC018E017F01E00107CC
:101B50000180011E017F01FF01E0010F01FE013D37
:101B6000017F12FF10FF01C0010301FD018701FF8A
:101B700001E201070181011E01FF01FF01E0010FE8
:101B800001FE013E017F12FF10FF01C5011F01FD93
:101B900001C101FF01E801070183011F01FF01FFEE
:101BA00001C0010F01FE013B13FF10FF01E0011610
:101BB00001FD01C501BF01F801C70184011F01FF3B
:101BC00001FF01C0010F01FE013D01C612FF10FF20
:101BD00001E1018501FC010C013F01FC0197018637
:101BE000011E01FB01FF01C0010F01FF010F01F701
:101BF00012FF10FF01E7010501FF018001FF01FA5B
:101C0000016F0180017E017F01FF01C0010F01FE14
:101C1000012501ED12FF10FF01E701A101FF019075
:101C200001BF01FE01070182011F01BF017F01C049
:101C3000010F01FE011F01FB12FF10FF01E0012D4A
:101C400001FF0130013F01FF01DF018101BF01F30D
:101C5000017F01C0010F01FE010F01FB12FF10FF08
:101C600001E0010901FF0138013F01F30157019330
:101C7000019E012F01FF01C0010F01FE011B01F1B7
:101C800012FF10FF01E2010301FF01F8013F01FB18
:101C900001C70191011F01E601FF01C0010F01FE13
:101CA000011101F712FF10FF01E0010101FF01CC5A
:101CB00001BF01FC01AF0180011E01F501FF01C060
:101CC000010F01FE010001DB12FF10FF01F0010511
:101CD00001FF01F8017F01FE01A701C0011F01FD05
:101CE00001FF01E0010F01FE012701DB12FF32FFBE
:101CF00032FF32FF32FF32FF32FF32FF32FF32FF5C
:101D000032FF32FF32FF32FF32FF32FF07FF01C0E6
:101D100001CF0100010301F0013F01F0010001FFCB
:101D200001FF013F01F0010F01FC010301FF010070
:101D300001FF01C0013F01F0010F01C0010301FFDC
:101D400001F303FF01F0010F01FF01F301FF0100A7
:101D500001FF01C0013F05FF07FF01C001CF0100E6
:101D6000010301F0013F01F0010001FF01FF013F0C
:101D700001F0010F01FC010301FF010001FF01C09F
:101D8000013F01F0010F01C0010301FF01F303FF57
:101D900001F0010F01FF01F301FF010001FF01C08C
:101DA000013F05FF07FF013F010F01CF01F301FFD5
:101DB000013F01FC01FF013F01FC013F01CF01F3A5
:101DC00001F301FC01FC01FF013F013F01CF01CF05
:101DD00001F301F301FC01FF010303FF01CF01F354
:101DE00001FF01C301FC01FF013F013F01CF05FFDE
:101DF00007FF013F010F01CF01F301FF013F01FC8C
:101E000001FF013F01FC013F01CF01F301F301FCA0
:101E100001FC01FF013F013F01CF01CF01F301F3BD
:101E200001FC01FF010303FF01CF01F301FF01C327
:101E300001FC01FF013F013F01CF05FF06FF01FC4F
:101E400001FF01CF01CF01FF01FC01CF01FC01FF28
:101E5000013F01F3013F01CF01F301F301FC01FF59
:101E600001FF013F013F01CF01CF01F301F301FC6D
:101E700001FF01F303FF01CF01F301FF013301FF74
:101E800001FF013F013F01CF05FF06FF01FC01FFFC
:101E900001CF01CF01FF01FC01CF01FC01FF013F98
:101EA00001F3013F01CF01F301F301FC01FF01FF49
:101EB000013F013F01CF01CF01F301F301FC01FF1D
:101EC00001F303FF01CF01F301FF013301FF01FF24
:101ED000013F013F01CF05FF06FF01FC01FF01CFDC
:101EE00001CF013F01FC01CF01FC01FF013F01F3E4
:101EF000013F01CF01F301F301FC01FF01FF013FAD
:101F0000013F01CF01CF01F301F301FC01FF01F318
:101F100003FF01CF01F301FF013301FF01FF013F87
:101F2000013F01CF05FF06FF01FC01FF01CF01CFFB
:101F3000013F01FC01CF01FC01FF013F01F3013F23
:101F400001CF01F301F301FC01FF01FF013F013F5C
:101F500001CF01CF01F301F301FC01FF01F303FF06
:101F600001CF01F301FF013301FF01FF013F013FF9
:101F700001CF05FF06FF01FC01FF01FF01C0013F8A
:101F800001F301F301FC01FF013F01CF013F01CF4C
:101F900001F301F301FC01FF01C001FF013F01CF8B
:101FA00001CF01F301F0010301FF01F303FF01CFB2
:101FB00001F301FC01F301FF01FC01FF013F01CF2F
:101FC00005FF06FF01FC01FF01FF01C0013F01F316
:101FD00001F301FC01FF013F01CF013F01CF01F3FC
:101FE00001F301FC01FF01C001FF013F01CF01CF5F
:101FF00001F301F0010301FF01F303FF01CF01F33E
:1020000001FC01F301FF01FC01FF013F01CF05FFCE
:1020100006FF01FC01FF01FF01CF013F01F301F3C6
:1020200001FC010001FF013F013F01CF01F301F37A
:1020300001FC01FF01FF013F013F01CF01CF01F38F
:1020400001F301FC01FF01F301FF0100010F01CFCA
:1020500003F301FF01F301FF013F01CF05FF06FF7D
:1020600001FC01FF01FF01CF013F01F301F301FC7E
:10207000010001FF013F013F01CF01F301F301FC2A
:1020800001FF01FF013F013F01CF01CF01F301F348
:1020900001FC01FF01F301FF0100010F01CF03F378
:1020A00001FF01F301FF013F01CF05FF06FF01FC26
:1020B00001FF01FF01CF01FF01F0010301FC01FF5E
:1020C00001FF0100010F01CF01F301F301FC01FF4A
:1020D00001FF013F013F01CF01CF01F301F301FCFB
:1020E00001FF01F303FF01CF01F301F0010001FF44
:1020F00001CF01FF013F01CF05FF06FF01FC01FFFA
:1021000001FF01CF01FF01F0010301FC01FF01FF0D
:102110000100010F01CF01F301F301FC01FF01FFF9
:10212000013F013F01CF01CF01F301F301FC01FFAA
:1021300001F303FF01CF01F301F0010001FF01CF23
:1021400001FF013F01CF05FF06FF01FC01FF01FF79
:1021500001CF01FF01CF01FC01FC03FF013F01CFD3
:1021600001F301F301FC01FF01FF013F013F01CF3A
:1021700001CF01F301F301FC01FF01F303FF01CFE4
:1021800001F301FF01F301FF013F01FF013F01CF17
:1021900005FF06FF01FC01FF01FF01CF01FF01CF99
:1021A00001FC01FC03FF013F01CF01F301F301FC3E
:1021B00001FF01FF013F013F01CF01CF01F301F317
:1021C00001FC01FF01F303FF01CF01F301FF01F364
:1021D00001FF013F01FF013F01CF05FF07FF013F65
:1021E00001CF01CF01FF01CF01FC01FC03FF013F43
:1021F00001CF01F301F301FC01FC01FF013F013FAD
:1022000001CF01CF01F301F301FC01FF01F303FF53
:1022100001CF01F301FF01F301FC01FF01FF013FC9
:1022200001CF05FF07FF013F01CF01CF01FF01CF24
:1022300001FC01FC03FF013F01CF01F301F301FCAD
:1022400001FC01FF013F013F01CF01CF01F301F389
:1022500001FC01FF01F303FF01CF01F301FF01F3D3
:1022600001FC01FF01FF013F01CF05FF07FF01C096
:10227000013F010001FF010301F00130010F01FFE7
:1022800001FC010F01F0010F01FC010301FF01003E
:1022900001FF01C0013F01F0010F01C0010301FF77
:1022A0000100013F01FF01FF01F0010F01FF01C02B
:1022B00001FC0100013F01C0013F05FF07FF01C014
:1022C000013F010001FF010301F00130010F01FF97
:1022D00001FC010F01F0010F01FC010301FF0100EE
:1022E00001FF01C0013F01F0010F01C0010301FF27
:1022F0000100013F01FF01FF01F0010F01FF01C0DB
:1023000001FC0100013F01C0013F05FF32FF32FF28
:1023100032FF32FF32FF32FF32FF32FF32FF32FF35
:1023200032FF32FF00000000240027002A000000D6
:102330000000250028002B000000000023002600DC
:102340002900040404040404040402020202020238
:102350000303030303030102040810204080010269
:1023600004081020010204081020000000080002E8
:102370000100000304070000000000000000921CA0
:1023800011241FBECFEFD8E0DEBFCDBF11E0A0E02B
:10239000B1E0E4E1F0E402C005900D92A03AB1078B
:1023A000D9F724E0A0EAB1E001C01D92AB39B20731
:1023B000E1F711E1C0ECD1E104C02197FE010E94D8
:1023C000F31FCF3BD107C9F70E94DA1C0C940820F9
:1023D0000C940000833081F028F4813099F0823031
:1023E000A9F008958730A9F08830C9F08430B1F49D
:1023F000809180008F7D03C0809180008F778093D3
:102400008000089584B58F7784BD089584B58F7D4D
:10241000FBCF8091B0008F778093B00008958091BA
:10242000B0008F7DF9CFCF93DF93EDE6F3E2849197
:10243000E9E5F3E2D491E5E4F3E2C491CC23A1F021
:1024400081110E94EA11EC2FF0E0EE0FFF1FE85C13
:10245000FC4DA591B491EC91ED2381E090E009F45D
:1024600080E0DF91CF91089580E090E0FACF1F9354
:10247000CF93DF93282F30E0F901E659FC4D84918A
:10248000F901EA5AFC4DD491F901EE5BFC4DC4917F
:10249000CC23A9F0162F81110E94EA11EC2FF0E055
:1024A000EE0FFF1FE25DFC4DA591B4918FB7F8943C
:1024B000EC91111108C0D095DE23DC938FBFDF9122
:1024C000CF911F910895DE2BF8CFCF93DF9390E04B
:1024D000FC01EA5AFC4D24918E5B9C4DFC018491D9
:1024E0008823D1F090E0880F991FFC01EC5DFC4D32
:1024F000A591B491FC01E25DFC4DC591D4916111AF
:102500000EC09FB7F8948C91E22FE0958E238C93A8
:102510002881E223E8839FBFDF91CF9108958FB791
:10252000F894EC91E22BEC938FBFF6CF3FB7F89481
:102530008091AD019091AE01A091AF01B091B00139
:1025400026B5A89B05C02F3F19F00196A11DB11D0E
:102550003FBFBA2FA92F982F8827BC01CD01620F4A
:10256000711D811D911D42E0660F771F881F991F05
:102570004A95D1F708958F929F92AF92BF92CF92D2
:10258000DF92EF92FF924B015C010E9496126B0169
:102590007C010E9496126C197D098E099F09683E84
:1025A000734081059105A8F321E0821A9108A108E2
:1025B000B10888EEC80E83E0D81EE11CF11C81141E
:1025C0009104A104B10429F7FF90EF90DF90CF9020
:1025D000BF90AF909F908F9008952FB7F89460911F
:1025E000A9017091AA018091AB019091AC012FBF1C
:1025F0000895AF92BF92CF92DF92EF92FF920F9326
:102600001F93CF93DF936C017B018B01040F151F88
:10261000EB015E01AE18BF08C017D10759F06991F0
:10262000D601ED91FC910190F081E02DC601099554
:10263000892B79F7C501DF91CF911F910F91FF9001
:10264000EF90DF90CF90BF90AF900895FC01538D35
:10265000448D252F30E0842F90E0821B930B54177C
:1026600010F0CF96089501970895FC01918D828D09
:10267000981761F0A28DAE0FBF2FB11D5D968C91A2
:10268000928D9F5F9F73928F90E008958FEF9FEFE1
:102690000895FC01918D828D981731F0828DE80F9D
:1026A000F11D858D90E008958FEF9FEF0895FC0157
:1026B000918D228D892F90E0805C9F4F821B910924
:1026C0008F739927089583EB93E00E94571321E0BD
:1026D000892B09F420E0822F089580E090E0892B77
:1026E00029F00E94631381110C9400000895FC01ED
:1026F000A48DA80FB92FB11DA35ABF4F2C91848D63
:1027000090E001968F739927848FA689B7892C93BF
:10271000A089B1898C91837080648C93938D848D12
:10272000981306C00288F389E02D80818F7D808315
:102730000895EF92FF920F931F93CF93DF93EC01D5
:1027400081E0888F9B8D8C8D98131AC0E889F98958
:10275000808185FF15C09FB7F894EE89FF8960835B
:10276000E889F98980818370806480839FBF81E0DC
:1027700090E0DF91CF911F910F91FF90EF9008951E
:10278000F62E0B8D10E00F5F1F4F0F731127E02EF9
:102790008C8D8E110CC00FB607FCFACFE889F98931
:1027A000808185FFF5CFCE010E947713F1CFEB8DAD
:1027B000EC0FFD2FF11DE35AFF4FF0829FB7F89405
:1027C0000B8FEA89FB8980818062CFCFCF93DF9323
:1027D000EC01888D8823B9F0AA89BB89E889F98939
:1027E0008C9185FD03C0808186FD0DC00FB607FC6E
:1027F000F7CF8C9185FFF2CF808185FFEDCFCE01A1
:102800000E947713E9CFDF91CF9108958FB7F894A5
:102810008091A2018FBF089561E0FC0184810E9434
:1028200037128091A10181111092A101089508959C
:1028300090E080E00895CF93CFB7F8948091A00105
:10284000811127C0ECE4F3E28491E0E6F3E2949195
:10285000E82FF0E0EE0FFF1FEC5DFC4DA591B49169
:10286000EC91E92321F461E08AE00E94371261E0F3
:102870008AE00E9465128CB580618CBD8CB5806445
:102880008CBD61E08DE00E94651261E08BE00E94EA
:1028900065128091A0018F5F8093A001CFBFCF917F
:1028A00008958EBD00000DB407FEFDCF8EB50895CE
:1028B0008FEF0C9451140F931F93CF93DF93EC0180
:1028C0000E94ED128B010E9458148F3F69F00E9404
:1028D000ED12601B710B6C177D07A8F380E0DF9190
:1028E000CF911F910F91089581E0F9CFCF93C82F19
:1028F00061E085E00E94371260E08AE00E943712B2
:102900008C2F0E94511461E08AE0CF910C94371211
:10291000CF93C82F60E085E00E94371260E08AE024
:102920000E9437128C2F0E94511461E08AE0CF91EF
:102930000C9437128CBD9DBD0895CF93DF93EC01AD
:102940008091A101811109C081E08093A101809152
:102950005004909151040E949A1460E08C81DF91A0
:10296000CF910C9437128F929F92AF92BF92FF92A9
:102970000F931F93CF93DF93EC01F62E49015A0179
:102980008E81882389F08F8198859C012F5F3F4F2E
:1029900038872F838230924018F40E945814F3CF66
:1029A000CE010E940C141E82CE010E949D148CE266
:1029B00091E00E945B148F2D80640E94511408E105
:1029C00010E0D501C401002E04C0B695A7959795D7
:1029D00087950A94D2F70E94511408501109083FB4
:1029E0008FEF180771F785E9FF2021F028E087E8CD
:1029F000F2128FEF0E94511410E00E9458148A873F
:102A000087FF04C01F3F11F01F5FF7CFDF91CF9109
:102A10001F910F91FF90BF90AF909F908F9008955E
:102A2000EF92FF920F931F93CF93DF93EC01790105
:102A300082E1411551056105710599F08B8583305F
:102A400039F089E0440F551F661F771F8A95D1F72B
:102A50009A01AB0168E1CE010E94B314882319F0FA
:102A600084E08D8330C08EEF0E94511487018EEF79
:102A7000F81AF80181918F010E9451140E151F055B
:102A8000C1F78FEF0E9451148FEF0E9451140E94E2
:102A900058148A878F71853089F488E592E00E9406
:102AA0005B148823A9F020E030E0A9016DE0CE019D
:102AB0000E94B314882371F084E1D3CF81E18D8328
:102AC000CE010E940C14CE010E940C1480E00AC0BA
:102AD00085E1C7CF0E9458148111EECFCE010E942C
:102AE0000C1481E0DF91CF911F910F91FF90EF9037
:102AF0000895CF93DF938091A3018823A9F1C0911A
:102B0000B103D091B2034091000150910101609155
:102B100002017091030121EB31E0CE010E941015FA
:102B2000811104C080E0DF91CF9108954091A4010C
:102B30005091A5016091A6017091A7014115510521
:102B40006105710579F021EB31E0CE010E9410158D
:102B5000882341F31092A4011092A5011092A601BE
:102B60001092A7011092A30181E0DDCF9F92AF9256
:102B7000BF92CF92DF92EF92FF920F931F93CF936A
:102B8000DF936B017C01942E8091000190910101F3
:102B9000A0910201B09103018C159D05AE05BF0502
:102BA00009F493C00E947915882389F1C091B1037B
:102BB000D091B2038E81882371F088819981AA8196
:102BC000BB81C816D906EA06FB0629F48F819885D1
:102BD000892B09F443C0C882D982EA82FB828B85A3
:102BE000A7019601833039F099E0220F331F441F6B
:102BF000551F9A95D1F761E1CE010E94B314882345
:102C000091F083E08D83CE010E940C1480E0DF916F
:102C1000CF911F910F91FF90EF90DF90CF90BF90D9
:102C2000AF909F9008950E94ED128B010E9458145E
:102C30008A878F3F69F40E94ED12601B710B6D3221
:102C40007140A0F38FE08D83CE010E940C14DBCF86
:102C50008E3F69F518861F8281E08E8301EB11E0BB
:102C600081EBA82E83E0B82E0E945814F8018193BE
:102C70008F01AE16BF06C1F78F8198859E5F98873A
:102C80008F832985222319F081159240B0F08E811F
:102C9000882399F08F8198859C012F5F3F4F38875B
:102CA0002F838230924028F40E945814F3CF8DE095
:102CB000CACFCE010E940C141E82C0920001D09295
:102CC0000101E0920201F09203014091A301492920
:102CD0004093A30181E09BCF8F929F92AF92BF92CE
:102CE000CF92DF92EF92FF92CF9322E534E03093C0
:102CF000B2032093B103882309F46DC040E060E083
:102D000070E0CB010E94B61581110BC080E0CF911D
:102D1000FF90EF90DF90CF90BF90AF909F908F90FB
:102D2000089580916F038F7789F780917B0390914D
:102D30007C03A0917D03B0917E0384369105A105AB
:102D4000B10520F3C0907703D0907803E090790329
:102D5000F0907A03C114D104E104F104B9F240E027
:102D6000C701B6010E94B615882381F28091BC018B
:102D70009091BD018115924049F6A091C101AA230D
:102D800029F26091BF017091C0016115710509F4CC
:102D9000BDCF2091BE01222309F4B8CFA0937004C7
:102DA0002093620490E080E030E0E1E0F0E0C82FA2
:102DB000AF01082E02C0440F551F0A94E2F72417F2
:102DC000350769F041E0480F01968930910579F7A0
:102DD00040936B049BCFC12CD12C7601C0CF809344
:102DE0006B042091C7013091C80150E040E02115EB
:102DF000310541F42091D5013091D6014091D701A0
:102E00005091D80120936304309364044093650487
:102E10005093660446015701860E971EA11CB11CF3
:102E20008092710490927204A0927304B092740420
:102E3000E091C201F091C301F0937704E09376042E
:102E4000B0E00E94E81FDC01CB01880D991DAA1D8E
:102E5000BB1D8093780490937904A0937A04B09377
:102E60007B0425E0EE0FFF1F2A95E1F7E150FE4FAE
:102E7000EF2FFF27E6958E0F9F1FA11DB11D809399
:102E80006C0490936D04A0936E04B0936F048090D3
:102E9000C4019090C501B12CA12C8114910441F47E
:102EA0008090D1019090D201A090D301B090D40134
:102EB000C81AD90AEA0AFB0AC80CD91CEA1CFB1C6E
:102EC00004C0F694E794D794C794CA95D2F7C092F9
:102ED0006704D0926804E0926904F0926A0485EF76
:102EE000C8168FE0D806E104F10428F48CE0809342
:102EF000750481E00CCF80E125EFC2162FEFD206DA
:102F0000E104F104A0F38091DD019091DE01A09134
:102F1000DF01B091E0018093780490937904A0934D
:102F20007A04B0937B0480E2E2CF4F925F926F927B
:102F30007F928F929F92AF92BF92CF92DF92EF9249
:102F4000FF920F931F93CF93DF93EC014230510513
:102F50006105710590F480E0DF91CF911F910F9191
:102F6000FF90EF90DF90CF90BF90AF909F908F90A9
:102F70007F906F905F904F90089589859A85AB857B
:102F8000BC850196A11DB11D84179507A607B7073B
:102F900010F3CB88DC88ED88FE888F89803109F0BA
:102FA00042C0BB27A72F962F852F480159012A0120
:102FB0003B01C80ED91EEA1EFB1E809100019091B4
:102FC0000101A0910201B0910301C816D906EA06D9
:102FD000FB0699F58F898031C1F5B301A201552710
:102FE00066277727440F551F4F545E4FFA01918291
:102FF00080828091A30181608093A3018A898230BD
:1030000080F08D819E81AF81B8858C0D9D1DAE1D98
:10301000BF1D8093A4019093A501A093A601B09336
:10302000A70181E099CFDB01CA01E7E0B695A7953A
:1030300097958795EA95D1F7B8CF40E0C701B601DB
:103040000E94B6158111C6CF86CFB301A2014F777A
:10305000552766277727440F551F440F551F4F5498
:103060005E4FFA0180829182A282B382C2CF8F9298
:103070009F92AF92BF92CF92DF92EF92FF920F9307
:103080001F93CF93DF93FC0181859285A385B4853F
:103090000196A11DB11D84179507A607B70770F407
:1030A00080E0DF91CF911F910F91FF90EF90DF9023
:1030B000CF90BF90AF909F908F9008958388948811
:1030C000A588B6888789803189F5BB27A72F962FD9
:1030D000852FE9016A017B018F01BC01CD01680DDB
:1030E000791D8A1D9B1D8090000190900101A09088
:1030F0000201B090030186169706A806B90601F5ED
:10310000F8018789803111F5DD24EE24FF24F601D2
:10311000EE0FFF1FEF54FE4F80819181B0E0A0E0E1
:1031200088839983AA83BB8381E0BBCFDB01CA017B
:10313000C7E0B695A79597958795CA95D1F7C9CF5A
:1031400040E00E94B6158111DBCFAACFE894C7F802
:10315000DD24EE24FF24F601EE0FFF1FEE0FFF1F0C
:10316000EF54FE4F80819181A281B381BF70D8CF8F
:103170003F924F925F926F927F928F929F92AF9207
:10318000BF92CF92DF92EF92FF920F931F93CF9354
:10319000DF93CDB7DEB72C970FB6F894DEBF0FBE26
:1031A000CDBF5C01DC015B968D909C905C97169680
:1031B0004D905D906D907C9019974114510461047D
:1031C000710409F468C0BFEF4B1A5B0A6B0A7B0AF3
:1031D000312CF40181859285A385B4859C01AD01D4
:1031E0002F5F3F4F4F4F5F4F29873A874B875C8751
:1031F000730162011D821E821F821886F40181857F
:103200009285A385B4852D813E814F8158852817ED
:1032100039074A075B0708F056C089859A85AB8550
:10322000BC858C159D05AE05BF0550F482E0C82E07
:10323000D12CE12CF12C92E0492E512C612C712CD7
:103240009E012F5F3F4FB701A601C4010E943718AE
:103250008823C9F189819A81AB81BC81892B8A2B12
:103260008B2B09F1260137019FEF491A590A690A88
:10327000790A2D813E814F8158852F5F3F4F4F4FF7
:103280005F4F2D833E834F8358873FEFC31AD30A86
:10329000E30AF30AB3CFF401408051806280738067
:1032A0003324339496CFC414D504E604F70409F705
:1032B0000FEF1FEF2FEF3FE0B701A601C4010E94FF
:1032C0009517811119C080E02C960FB6F894DEBFD7
:1032D0000FBECDBFDF91CF911F910F91FF90EF9067
:1032E000DF90CF90BF90AF909F908F907F906F9026
:1032F0005F904F903F900895F5014681578160851A
:103300007185411551056105710539F097018601F7
:10331000C4010E9495178823B1F2D5011696CD926B
:10332000DD92ED92FC921997332051F0D701C6013E
:103330000196A11DB11DF40180839183A283B38303
:10334000F5018789908DA18DB28D892B8A2B8B2BCE
:1033500039F4C78AD08EE18EF28E848180688483AE
:1033600081E0B2CFCF93DF93FC01248127FF2BC0F4
:10337000EC01668577858089918941E00E94B615C8
:10338000882329F1EA8980E2E89FF0011124EF54B3
:10339000FE4F3097E1F08D81823040F48B899C891B
:1033A000AD89BE89848F958FA68FB78F8F89988DB1
:1033B000938F828F8F89988DA98DBA8DB58BA48BB1
:1033C0008C818F778C83DF91CF910C94791580E07D
:1033D000DF91CF9108954F925F926F927F928F927B
:1033E0009F92AF92BF92CF92DF92EF92FF920F9394
:1033F0001F93CF93DF9300D000D01F92CDB7DEB7DD
:103400008C016D83DC0115968C911597813009F044
:103410001FC114968C91149781FF1AC182FF12C0AC
:103420001A968D909D90AD90BC901D975396CD901F
:10343000DD90ED90FC905697C814D904EA04FB0483
:1034400009F0A3C0D8015B96ED91FC915C971A96A8
:10345000AD90BD90CD90DC901D9794809A94B6016C
:10346000A50189E076956795579547958A95D1F797
:103470009422B1E0BB22992009F4FDC0D8015B96EB
:10348000ED91FC915C971696CD90DD90ED90FC90BF
:103490001997B2E0CB1AD108E108F108858504C07C
:1034A000CC0CDD1CEE1CFF1C8A95D2F74685578597
:1034B00060897189C40ED51EE61EF71EC90CD11C89
:1034C000E11CF11CA114B10409F067C1F8014285A7
:1034D00053856485758583899489A589B68948173C
:1034E00059076A077B0708F458C10E947915882399
:1034F00009F4AEC0C0920001D0920101E092020135
:10350000F09203018091A30181608093A301F501F2
:10351000EF54FE4F8D818083F80182859385A485C9
:10352000B5850196A11DB11D82879387A487B587B4
:103530004389548965897689481759076A077B0743
:1035400038F42481838B948BA58BB68B20682483DD
:10355000D80114968C9183FDFEC081E090E00F901D
:103560000F900F900F900F90DF91CF911F910F91BF
:10357000FF90EF90DF90CF90BF90AF909F908F9093
:103580007F906F905F904F900895C114D104E10433
:10359000F10461F4F80116821782108611861A96DA
:1035A0001D921D921D921C921D974CCF5B96ED9122
:1035B000FC91858590E00996B501A401415051091F
:1035C00061097109082E04C076956795579547954E
:1035D0000A94D2F726013701B1E04B1A510861086D
:1035E000710804C076946794579447948A95D2F7EB
:1035F000441655066606770620F089288A288B2807
:1036000079F5F8018789908DA18DB28D8683978396
:10361000A087B1875801F6E0AF0EB11CD8015B96C8
:103620008D919C915C9716964D915D916D917C91D9
:1036300019974114510461047104B9F095010E9475
:103640003718B1E04B1A5108610871088111E6CFB3
:1036500081E090E0D80113969C938E93129754C00A
:10366000441A550A660A770AD5CFF801C286D3866E
:10367000E486F586E7CED80116964D915D916D9161
:103680007C911997A114B10409F070C0411551053E
:103690006105710589F557968D919D910D90BC91AD
:1036A000A02D0097A105B10509F04FC0C8010E94E7
:1036B000B818882369F2D8015B96ED91FC915C976C
:1036C0001696CD90DD90ED90FC901997B2E0CB1A54
:1036D000D108E108F108858504C0CC0CDD1CEE1C86
:1036E000FF1C8A95D2F74685578560897189C40E7B
:1036F000D51EE61EF71EEACE9E012F5F3F4FCF017B
:103700000E943718811103C090E080E028CF8981A2
:103710009A81AB81BC81F801238D348DF901278911
:1037200048EF5FEF60E070E0203121F048EF5FEF9D
:103730006FEF7FE084179507A607B70730F0C80141
:103740000E94B81881119ACE83CFF801868397839F
:10375000A087B18793CEF8018581882309F478CFBB
:10376000C8010E94B2198111F8CE72CF6A017B01A3
:10377000B2E0CB1AD108E108F108858504C0CC0C71
:10378000DD1CEE1CFF1C8A95D2F7468557856089A3
:103790007189C40ED51EE61EF71E41E0C701B601B1
:1037A0000E94B6158111B3CE53CFFC0101900020C9
:1037B000E9F73197AF01481B590BBC0183EB93E04C
:1037C0000C94F912CF93DF930E94D51BEC0182E297
:1037D00091E00E94D51B8C0F9D1FDF91CF91089522
:1037E0001F920F920FB60F9211242F933F938F9336
:1037F0009F93AF93BF938091A9019091AA01A0914B
:10380000AB01B091AC013091A80123E0230F2D371B
:1038100058F50196A11DB11D2093A8018093A9011F
:103820009093AA01A093AB01B093AC018091AD013C
:103830009091AE01A091AF01B091B0010196A11D90
:10384000B11D8093AD019093AE01A093AF01B093F1
:10385000B001BF91AF919F918F913F912F910F90A8
:103860000FBE0F901F90189526E8230F0296A11DFA
:10387000B11DD2CF1F920F920FB60F9211242F932A
:103880003F934F935F936F937F938F939F93AF93E8
:10389000BF93EF93FF9383EB93E00E947713FF9125
:1038A000EF91BF91AF919F918F917F916F915F91B8
:1038B0004F913F912F910F900FBE0F901F90189531
:1038C0001F920F920FB60F9211242F938F939F93F5
:1038D000EF93FF93E091C303F091C4038081E091E3
:1038E000C903F091CA0382FD1BC090818091CC0373
:1038F0008F5F8F732091CD03821741F0E091CC034D
:10390000F0E0ED54FC4F958F8093CC03FF91EF9145
:103910009F918F912F910F900FBE0F901F90189530
:103920008081F4CFE3EBF3E01382128288EE93E020
:10393000A0E0B0E084839583A683B78388E091E01C
:103940009183808385EC90E09587848784EC90E078
:103950009787868780EC90E0918B808B81EC90E05C
:10396000938B828B82EC90E0958B848B86EC90E03D
:10397000978B868B118E128E138E148EE0E5F4E0F9
:1039800080E580831182E2E5F4E0158216821186DB
:10399000138682E090E0A0E0B0E084879587A68758
:1039A000B78713A215A614A68AE191E093A782A770
:1039B00017A60895CF93DF9300D000D0CDB7DEB720
:1039C000789484B5826084BD84B5816084BD85B5FA
:1039D000826085BD85B5816085BD80916E00816006
:1039E00080936E00109281008091810082608093AC
:1039F00081008091810081608093810080918000AE
:103A00008160809380008091B10084608093B100D8
:103A10008091B00081608093B00080917A008460D2
:103A200080937A0080917A00826080937A008091FE
:103A30007A00816080937A0080917A008068809318
:103A40007A001092C100E091C303F091C40382E0B8
:103A50008083E091BF03F091C0031082E091C10325
:103A6000F091C2038FEC80831092CB03E091C703E7
:103A7000F091C80386E08083E091C503F091C6030E
:103A8000808180618083E091C503F091C6038081CD
:103A900088608083E091C503F091C60380818068CF
:103AA0008083E091C503F091C60380818F7D808380
:103AB00085E291E00E94E21B61E08AE00E946512CB
:103AC00061E084E00E94651261E085E00E94651279
:103AD00060E083E00E94651261E088E00E94651268
:103AE00060E088E00E94371280918104882339F0D9
:103AF0008CE794E00E94B219811110928104109217
:103B00005D0410925B04109258041092570488E0F0
:103B1000809356040E94ED128B0161E0809156045F
:103B20000E94651261E0809156040E9437120E9443
:103B30001B1482E58093500410925104809150042C
:103B4000909151040E949A145AE0F52E8FEF0E9432
:103B50005114FA94F110FACF82E594E00E949D147A
:103B600020E030E0A90160E082E594E00E94B31417
:103B7000F82E80935C0421E0821799F00E94ED12E8
:103B8000601B710B613D774058F381E080935704CF
:103B900082E594E00E940C1483E391E00E94E21B12
:103BA000BFC02AEA31E040E050E068E082E594E0FE
:103BB0000E94B31482FF2AC0F0925D0480915D04DC
:103BC000C12CD12C7601823029F4C12CD12CE12CCE
:103BD00030E4F32E20E030E0A90167E382E594E0D1
:103BE0000E94B314A701960169E282E594E00E9465
:103BF000B31480935C048823D1F00E94ED12601B03
:103C0000710B613D774030F388E0C0CF44E0F42E83
:103C10000E94581480935C04FA94F110F9CF8A3A08
:103C200011F082E0B3CF82E080935D04C7CF809132
:103C30005D048230D1F420E030E0A9016AE382E53E
:103C400094E00E94B314882311F086E09FCF0E9475
:103C50005814807C803C19F483E080935D040E94BA
:103C600058140E9458140E94581482E594E00E944F
:103C70000C1480E58093500481E0809351040E94ED
:103C80006C16882309F40CC180918104811184CFC2
:103C900080917504803109F00AC182E0809381042B
:103CA000109293041092940410929504109296042A
:103CB0008091760490917704B0E0A0E025E0880F31
:103CC000991FAA1FBB1F2A95D1F780938F04909349
:103CD0009004A0939104B09392048EE594E09093A5
:103CE00098048093970481E080938004109282046A
:103CF000109283041092840410928504109286041A
:103D000010928704109288041092890410928A04F9
:103D100010928B0410928C0410928D0410928E04D9
:103D200081E591E00E949A140E941B1460E084E0F7
:103D30000E94371264E170E080E090E00E94BB12C4
:103D400061E084E00E94371264E170E080E090E07E
:103D50000E94BB1260E084E00E94371264E170E0D0
:103D600080E090E00E94BB1261E084E00E94371284
:103D700064E170E080E090E00E94BB1260E084E0CB
:103D80000E94371264E170E080E090E00E94BB1274
:103D900061E084E00E94371264E170E080E090E02E
:103DA0000E94BB1281E00E94881483E00E94761476
:103DB00080E00E9476148BE20E9476148BE20E94CF
:103DC000761486E00E94881487E10E94761487E1C9
:103DD0000E94761487E10E94761484E00E94881481
:103DE0008BE491E00E94E21B0E941312892BE1F305
:103DF00087E591E00E94E21B80E00E94881483E93D
:103E00000E94761480E30E9488148AE30E9476144C
:103E100081E60E94881481E00E94761480E90E9465
:103E2000761481E00E9476148CE20E94761482E877
:103E30000E94881482E10E94761480E50E94881412
:103E400087E00E94761482E691E00E94E21B81E7FF
:103E500091E00E94E21B84E00E9488140E941312E9
:103E6000892BE1F360E08AE00E94371260E085E090
:103E70000E94371283E10E94511461E085E00E94A4
:103E8000371209E610E0F8013197E490F12CEF14B5
:103E900009F46DC0F80184910E945114F394F7CF96
:103EA00080E00E946C16882309F476CEEDCE803235
:103EB00009F072CE83E08093810480917804909120
:103EC0007904A0917A04B0917B0480939304909339
:103ED0009404A0939504B093960489839A83AB834A
:103EE000BC83C12CD12C7601812C82E0982EA12C90
:103EF000B12C49815A816B817C819E012F5F3F4F9C
:103F00008EE594E00E943718882309F445CE80910D
:103F10006B04A501940104C0220F331F441F551FD9
:103F20008A95D2F7DA01C901C80ED91EEA1EFB1E16
:103F300049815A816B817C8180917504803191F037
:103F400088EF9FEFAFEFBFE0481759076A077B077D
:103F500080F2C0928F04D0929004E0929104F0928B
:103F60009204BBCE88EF9FEFA0E0B0E0EDCF0E5FF4
:103F70001F4FF3E205351F0709F085CF60E085E0AC
:103F80000E94371281E10E94511482E10E94511473
:103F900061E08AE00E9437128DE791E00E94D51B14
:103FA0000E941312892BE1F38FE891E00E94E21B3B
:103FB00082E00E94881483E00E94881480E00E94BE
:103FC000761460ED77E080E090E00E94BB12FFCFB6
:103FD0000E94F91FA59F900DB49F900DA49F800D86
:103FE000911D11240895EE0FFF1F0590F491E02D0F
:103FF0000994A29FB001B39FC001A39F700D811DC2
:104000001124911DB29F700D811D1124911D0895E1
:04401000F894FFCF52
:10401400FFFFFFFF000000009913F9122613E613B7
:1040240057133513491300000000EB19F912181443
:1040340017140D0A007365747570207374617274BB
:10404400656400534420636F756C64206E6F742044
:10405400696E697469616C697A65006265666F721C
:10406400652077616974006166746572207761699F
:104074007400736574757020636F6D706C6574651E
:1040840000746F70206F66206C6F6F7000726566CD
:1040940072657368696E67202E202E202E200072B0
:1040A40065667265736820636F6D706C6574650016
:00000001FF
